:020000040000FA
:0600000028EF04F01200DD
:0A00060001009C080000380F000004
:0400100002000000EA
:0C001400D9CFE6FFE1CFD9FFFE0EDB5094
:10002000040A1EE0070A17E0010A0FE0030A06E0CF
:10003000010A1DE18B808B908B9815D08B828B925F
:100040008B988B948B968B9018D08B868B968B98F5
:100050008B948B900AD08B848B948B988B9004D04C
:100060008B888B988B908B948B968B9206D08B90F1
:100070008B928B928B968B948B98E552E7CFD9FF1E
:100080001200D9CFE6FFE1CFD9FFFE0EDB50070A01
:1000900062E0010A54E0030A46E0010A38E0070A78
:1000A0002AE0010A1CE0030A0EE0010A5EE1FD0EEF
:1000B000DB5002E0010E01D0000EE8B08A8EE8B0FD
:1000C00054D08A9E52D0FD0EDB5002E0010E01D0CA
:1000D000000EE8B08A8CE8B048D08A9C46D0FD0E6D
:1000E000DB5002E0010E01D0000EE8B08A8AE8B0D1
:1000F0003CD08A9A3AD0FD0EDB5002E0010E01D0CE
:10010000000EE8B08A88E8B030D08A982ED0FD0E74
:10011000DB5002E0010E01D0000EE8B08A86E8B0A4
:1001200024D08A9622D0FD0EDB5002E0010E01D0D1
:10013000000EE8B08A84E8B018D08A9416D0FD0E7C
:10014000DB5002E0010E01D0000EE8B08A82E8B078
:100150000CD08A920AD0FD0EDB5002E0010E01D0D5
:10016000000EE8B08A80E8A08A90E552E7CFD9FF78
:100170001200D9CFE6FFE1CFD9FF000EF36EFE0EDD
:10018000DBCFF4FFF350F45C15E3FE0EDB50070801
:1001900011E333CF8AFFFD0EDBCFE6FFFE0EDBCF90
:1001A000E6FF6FDFE552E552E66A34DFE5528ACFBB
:1001B00033FF8A6A080EF36EFE0EDBCFF4FFF350B6
:1001C000F45C17E3FE0EDB500F0813E334CF8AFF15
:1001D000FD0EDBCFE6FFFE0EDB50F80FE66E51DFC3
:1001E000E552E552010EE66E15DFE5528ACF34FF87
:1001F0008A6A100EF36EFE0EDBCFF4FFF350F45C50
:1002000017E3FE0EDB50170813E335CF8AFFFD0E10
:10021000DBCFE6FFFE0EDB50F00FE66E32DFE5527D
:10022000E552020EE66EF6DEE5528ACF35FF8A6AA7
:10023000180EF36EFE0EDBCFF4FFF350F45C17E301
:10024000FE0EDB501F0813E336CF8AFFFD0EDBCF17
:10025000E6FFFE0EDB50E80FE66E13DFE552E552D7
:10026000030EE66ED7DEE5528ACF36FF8A6A200E8D
:10027000F36EFE0EDBCFF4FFF350F45C18E3FE0EDA
:10028000DB50270814E337CF8AFFFD0EDBCFE6FFF4
:10029000FE0EDB50E00FE66EF4DEE552E552040E92
:1002A000E66EB8DEE5528ACF37FF8A6A05D08B90BA
:1002B0008B928B968B948B98E552E7CFD9FF1200E7
:1002C0000F01336B346B356B366B376B1200D9CF44
:1002D000E6FFE1CFD9FFFE0EDB0402E18A6801D020
:1002E0008A6AE66A97DEE552010EE66E93DEE55213
:1002F000020EE66E8FDEE552030EE66E8BDEE552F1
:10030000040EE66E87DEE552E552E7CFD9FF120014
:10031000D9CFE6FFE1CFD9FF040EE126DE6ADE6A1F
:10032000DE6ADD6ADD52DD52FB0EDBCF10F0FC0E23
:10033000DBCF11F0FD0EDBCF12F0FE0EDBCF13F0A2
:10034000D9CFE9FFDACFEAFF1050EE5C1150EE583A
:100350001250EE581350EE580CE200000000D9CFB6
:10036000E9FFDACFEAFFEE2A000EEE22EE22EE22BD
:10037000DBD7040EE15C02E2E16AE552E16EE55290
:10038000E7CFD9FF1200D9CFE6FFE1CFD9FF040EA6
:10039000E126DE6ADE6ADE6ADD6ADD52DD52FB0ED0
:1003A000DBCF10F0FC0EDBCF11F0FD0EDBCF12F037
:1003B000FE0EDBCF13F0D9CFE9FFDACFEAFF105002
:1003C000EE5C1150EE581250EE581350EE580FE2FA
:1003D000020EE66E08EC04F0E552D9CFE9FFDACF61
:1003E000EAFFEE2A000EEE22EE22EE22D8D7040E0D
:1003F000E15C02E2E16AE552E16EE552E7CFD9FF46
:100400001200D9CFE6FFE1CFD9FF040EE126DE6A64
:10041000DE6ADE6ADD6ADD52DD52FB0EDBCF10F0F4
:10042000FC0EDBCF11F0FD0EDBCF12F0FE0EDBCFAA
:1004300013F0D9CFE9FFDACFEAFF1050EE5C11508C
:10044000EE581250EE581350EE580FE2C80EE66EFA
:10045000DBEC03F0E552D9CFE9FFDACFEAFFEE2A71
:10046000000EEE22EE22EE22D8D7040EE15C02E26C
:0E047000E16AE552E16EE552E7CFD9FF1200D6
:02047E00D9CFD4
:10048000E6FFE1CFD9FF020EE126FC0EDBCF1CF028
:10049000FD0EDBCF1DF01E6A1F6A186A120E196E60
:1004A0007A0E1A6E1B6A18C004F019C005F0066EA9
:1004B0001BC007F01CC009F01DC00AF01EC00BF0E5
:1004C0001FC00CF0B7EC03F004C014F005C015F029
:1004D00006C016F007C017F0020ED8901732163279
:1004E00015321432E806F9E114C010F015C011F00D
:1004F00016C012F017C013F01006000E115A125A4F
:10050000135A10C0DEFF11C0DDFFAC6AAB6AB86AD7
:10051000DECF10F0DDCF11F011C010F0116A1050D5
:10052000B06EDF50AF6EB886AC98FE0EDB5002E0C6
:10053000010E01D0000EE8B0AC8CE8A0AC9CAC96EB
:10054000AC84AC8AFE0EDB5002E0010E01D0000E3E
:10055000E8B0AB8CE8A0AB9CAB96AB88AB8E949C20
:10056000948E020EE15C02E2E16AE552E16EE55230
:10057000E7CFD9FF1200D9CFE6FFE1CFD9FFFC0EBC
:10058000DB5012E0ACA2FBD7FD0EDBCFE9FFFE0E85
:10059000DBCFEAFFEF50AD6EFD0EDB2AFE0E01E36E
:1005A000DB2AFC0EDB06EBD7E552E7CFD9FF1200C2
:1005B0000F01396B39CF38FF1200D9CFE6FFE1CFF9
:1005C000D9FF0F013951106E116A290E105C000E0F
:1005D00011581BE23951392B3825E96EEA6A290E88
:1005E0000B6E0C6AE9CF06F0EACF07F0F2EC03F0ED
:1005F00002C0E9FF03C0EAFF000EE9260F0EEA225F
:10060000FE0EDBCFEFFF010E01D0000EE552E7CF6B
:10061000D9FF1200D9CFE6FFE1CFD9FF0F01395141
:100620001FE03851382BEA6A000FE96E0F0EEA22FC
:10063000EF50E66EFD0EDBCFE9FFFE0EDBCFEAFFEB
:10064000E552E750EF6E290E106E0C6E38CF07F0B2
:1006500036EC04F003C038FF0F013907010E01D05A
:0A066000000EE552E7CFD9FF1200AB
:06066A00060EF66E000E04
:10067000F76E000EF86E0F010900F5502E6F09009D
:10068000F5502F6F03E12E6701D03DD00900F550E2
:10069000296F0900F5502A6F0900F5502B6F0900EA
:1006A0000900F550E96E0900F550EA6E09000900ED
:1006B0000900F5502C6F0900F5502D6F0900090055
:1006C000F6CF30FFF7CF31FFF8CF32FF29CFF6FF5B
:1006D0002ACFF7FF2BCFF8FF0F012C5302E12D5348
:1006E00007E00900F550EE6E2C07F8E22D07F9D768
:1006F00030CFF6FF31CFF7FF32CFF8FF0F012E07D3
:08070000000E2F5BBFD71200B1
:08070800D9CFE6FFE1CFD9FFD4
:10071000040EE12619D89EAAFED7AE50DF6EDF4048
:100720007F0BE76E010EE7CFDBFFDF14E76E020EF3
:10073000E7CFDBFFDBCFE6FF010EDBCFE6FFB9EC57
:1007400000F0E552E552E7D760EC01F044EC04F02C
:10075000E66A67EC01F0E552800EE66E250EE66E65
:0E076000E66A3FEC02F0E552E552E552120067
:02076E00036A1C
:10077000026A016A006A200EE76ED89004360536D8
:100780000636073600360136023603360950005C5D
:100790000A5001580B5002580C50035809E30950F5
:1007A000005E0A50015A0B50025A0C50035A042A98
:0607B000E72EE4D7120061
:0A07B600FF0EE350216EEF0E01D09C
:1007C000F30EE76EE72EE2EF03F00C0E206EE76A01
:1007D000E72EE8EF03F0202EE7EF03F0212EE0EF05
:0407E00003F0120010
:0C07E400036A026A100EE76ED890063619
:1007F0000736023603360B50025C0C50035805E3F3
:100800000B50025E0C50035A062AE72EF0D7120056
:10081000FF0EE350216E480E01D04C0EE76EE72E1E
:10082000FED7E76AE72EFED7212EF7D70000120089
:10083000600EF36E00EE00F00F0E01D81200EA60B9
:1008400002D0EE6AFCD7F350E9601200EE6AFCD7E2
:100850001EEE00F02EEE00F0F86A0F9C35EC03F06F
:0C0860004DEC04F084EC03F0FBD7120018
:04086C00036A080E05
:10087000E76ED890073603360C50035C02E3036E34
:08088000072AE72EF7D712004A
:08088800936A7E6A7F6A949076
:0A08900094929494949694981200A8
:02089A0012004A
:02089C0000005A
:020000040030CA
:0100010002FC
:010003001EDE
:010006008178
:00000001FF
