:060000000A128A11642DB2
:100998008312031390011012901290100800FC3477
:1009A8006034DA34F2346634B634BE34E034FE34BB
:1009B800F6347E088A007F0882000A128A11DD2434
:1009C8000A128A118000840A04087D06031900347B
:1009D800FF0A0319FE0AE12CF0007008031DF52C2C
:1009E800FD2C8316031398128312031318129813FD
:1009F800052D8316031398168312031318169817D8
:100A0800052D08001D2D831203131010FF308F00D1
:100A1800FC308E000C101014112D0C1C142D152DEB
:100A2800112D162DFF30F0070318F10AFF30F107DA
:100A38001D2D71087004031D222D232D072D242D33
:100A480008003C2D831203131010F4308F00473038
:100A58008E000C101014302D0C1C332D342D302D1D
:100A6800352DFF30F0070318F10AFF30F1073C2D50
:100A780071087004031D412D422D262D432D0800B9
:100A8800F1005A2D710884008313000883120313A0
:100A980099004E2D83160313981C532D542D4E2D5B
:100AA800552D0130F0007008F1075A2D71088400A7
:100AB80083138008031D612D622D462D632D0800C8
:100AC800BD01BE01BF01C001C101C201C301C40112
:100AD800C501C601C701C801C901CA01CB018313F9
:100AE8005630FD000430FE00D330FF004C30840047
:100AF8000A128A11E1240A128A1183010A128A1140
:100B0800DD2E831203132008F0002108F100F20102
:100B1800F3010030F700A830F600C030F5000030CF
:100B2800F4000A128A11DB250A128A11700883124E
:100B38000313A2007108A3007208A4007308A5009B
:100B480002300310A50CA40CA30CA20CFF3E031D3D
:100B5800A52D2208FF3EA60023080318013EFF3EEC
:100B6800A7008316031398018312031398018316B1
:100B780003178701871583120313270883160313A6
:100B88009A00831203132608831603139900181278
:100B9800181398111815981683120313181398111F
:100BA80018169817831603130713871708000030C1
:100BB800FC000030FB000030FA000030F900730838
:100BC8007204710470040319EA2DEB2D3E2EFD0109
:100BD800FD0AFC2D0130F8000310F00DF10DF20DA7
:100BE800F30DF80BF02D0130F8007808FD07FC2D07
:100BF800F31FFF2D002EEE2D022E022E0130F800DD
:100C08000310F90DFA0DFB0DFC0DF80B042E7308FB
:100C18007702031D192E72087602031D192E71081A
:100C28007502031D192E70087402031C1C2E1D2E3C
:100C38002D2E7008F4027108031C710FF50272085A
:100C4800031C720FF6027308031C730FF702791462
:100C58002D2E01300310F30CF20CF10CF00CFF3EBA
:100C6800031D2E2E0130FD02031D3B2E3C2E022EAD
:100C78003E2E3E2E7C08F3007B08F2007A08F10035
:100C88007908F000472E0800831203138601071025
:100C9800871007118711071247084C3E84008313F9
:100CA8000008860007148710071187110712013002
:100CB800F0000030F1000A128A1106250A128A1182
:100CC8008312031386010710871007118711071273
:100CD80048084C3E840083130008860007108714D8
:100CE8000711871107120130F0000030F1000A12D5
:100CF8008A1106250A128A11831203138601071026
:100D0800871007118711071249084C3E8400831386
:100D18000008860007108710071587110712013091
:100D2800F0000030F1000A128A1106250A128A1111
:100D38008312031386010710871007118711071202
:100D48004A084C3E84008313000886000710871069
:100D58000711871507120130F0000030F1000A1260
:100D68008A1106250A128A118312031386010710B5
:100D780087100711871107124B084C3E8400831314
:100D88000008860007108710071187110716013021
:100D9800F0000030F1000A128A1106250A128A11A1
:100DA8008312031386010710871007118711071292
:100DB8000800333084003D3083120313A800040870
:100DC800A9000A30AA002808840083130008AB0091
:100DD800A80A290884002B088000A90AAA0BE72E74
:100DE800B101B201B0010030AF000030AE000030F8
:100DF800AD000030AC0083160313860107309F0056
:100E08000710871007118711071287128C120B1011
:100E18008B11803083120313A0002530A1000A1221
:100E28008A1185250A128A110A128A11CC240A12FB
:100E38008A1183120313860107108710071187117F
:100E480007126430F0000030F1000A128A112525DB
:100E58000A128A112F2F8312031387128C1E352F23
:100E6800362F552F1A08A8003208333E8400280868
:100E7800831380000130A8002808B20733087E3A9F
:100E88000319472F482F4A2FB2014A2F3208093A2F
:100E9800031D4F2F502F552FB201B001B00A552F07
:100EA800552F3008031D592FF02F01300A128A11CF
:100EB800F0240A128A11831203133B087F3A031D98
:100EC800662F672FEE2F3408393A031D6C2F6D2FCC
:100ED800EE2F3508A8002808B1003108303A031D64
:100EE800762F772F912F3608D03EA8002808C70004
:100EF8003708D03EA8002808C8003808D03EA80007
:100F08002808C9003908D03EA8002808CA003A08AD
:100F1800D03EA8002808CB00E02F3108323A031D44
:100F2800962F972FE02F6430F0000030F1000A125E
:100F38008A1125250A128A117E3083120313A8000C
:100F48002808B3003930A8002808B4003130A800B8
:100F58002808B5003030A8002808B6003030A800AE
:100F68002808B7003030A8002808B800050801395B
:100F78003038A8002808B900050C01393038A80015
:100F88002808BA007F30A8002808BB00BC018716D3
:100F980000300A128A11F0240A128A1133300A1218
:100FA8008A1144250A128A1101300A128A11F02482
:100FB8000A128A11E02FE02F83120313B101B30143
:100FC800B401B501B601B701B801B901BA01BB0155
:100FD800BC01EE2FB001F02F0A128A1148260A121E
:100FE8008A1100300A128A11F0240A128A112F2F4E
:080FF8002F2F0A128A110028B4
:04400E00D2E0FFFEFF
:00000001FF
