:060000000A128A11F12D25
:100BE20083136D30FD000630FE007330FF00483085
:100BF20084000A128A1107260A128A1183010A1234
:100C02008A115B2F7E088A007F0882000A128A11ED
:100C120003260A128A118000840A04087D06031939
:100C22000034FF0A0319FE0A072EF301F401222EF3
:100C32000000000000000130F3070318F40A00303E
:100C4200F4077408803AF2007108803A7202031DB8
:100C52002C2E70087302031C2F2E302E192E312ECB
:100C62000800F200492E83160313981C392E3A2EDF
:100C7200492E72088400831300088312031399001B
:100C82000130F1007108F2070130F002492E492EBD
:100C9200F008031D4D2E4E2E342E4F2E0800F80163
:100CA200F901632EE830F0000330F1000A128A11D4
:100CB20016260A128A110130F8070318F90A0030C1
:100CC200F907632E7908803AF7007608803A7702AE
:100CD200031D6D2E75087802031C702E712E532E83
:100CE200722E0800FC346034DA34F2346634B634DE
:100CF200BE34E034FE34F6343134313431343234FB
:100D020030343034303430343134313431343134BD
:100D120031343134313431343134313432343234A7
:100D22003234323432343234323432343234831262
:100D320003132008F0002108F100F201F301003052
:100D4200F700A830F600C030F5000030F4000A12B7
:100D52008A11EE260A128A11700883120313A20066
:100D62007108A3007208A4007308A50002300310E2
:100D7200A50CA40CA30CA20CFF3E031DB82E220846
:100D8200FF3EA60023080318013EFF3EA70083167C
:100D92000313980183120313980183160317870123
:100DA2008715831203132708831603139A008312ED
:100DB20003132608831603139900181218139811A7
:100DC20018159816831203131813981118169817EA
:100DD200831603130713871708000030FC00003046
:100DE200FB000030FA000030F9007308720471044D
:100DF20070040319FD2EFE2E512FFD01FD0A0F2F47
:100E02000130F8000310F00DF10DF20DF30DF80BA7
:100E1200032F0130F8007808FD070F2FF31F122F60
:100E2200132F012F152F152F0130F8000310F90D84
:100E3200FA0DFB0DFC0DF80B172F73087702031D3B
:100E42002C2F72087602031D2C2F71087502031DC8
:100E52002C2F70087402031C2F2F302F402F700884
:100E6200F4027108031C710FF5027208031C720F61
:100E7200F6027308031C730FF7027914402F013036
:100E82000310F30CF20CF10CF00CFF3E031D412F8A
:100E92000130FD02031D4E2F4F2F152F512F512FC1
:100EA2007C08F3007B08F2007A08F1007908F00070
:100EB2005A2F08002C308400523083120313A800EA
:100EC2000408A9000930AA00280884008313000836
:100ED200AB00A80A290884002B088000A90AAA0BE3
:100EE200652F353084005B30A8000408A900093062
:100EF200AA002808840083130008AB00A80A290866
:100F020084002B088000A90AAA0B7A2F3E308400A5
:100F12006430A8000408A9000930AA002808840047
:100F220083130008AB00A80A290884002B0880005C
:100F3200A90AAA0B8F2FC7010030A0004B30A100D5
:100F42000A128A1198260A128A118316031386013D
:100F5200831603178901880183160313071087106C
:100F6200071187118712831203138601871507154C
:100F72008714071487160930A8002808F0002C30BF
:100F82000A128A1132260A128A116430F5000030E0
:100F9200F6000A128A1150260A128A11D02F8312E1
:100FA200031387160930A8002808F00035300A120A
:100FB2008A1132260A128A11C830F5000030F60072
:100FC2000A128A1150260A128A1109308312031357
:100FD200A8002808F0003E300A128A1132260A12AE
:100FE2008A11C830F5000030F6000A128A11502624
:0E0FF2000A128A11D02FD02F0A128A1100285D
:02400E00F2E3DB
:00000001FF
