:060000000A128A11F62F1E
:100AB400F000700883120313990083160313981827
:100AC40008005F2DF0007008831203178D00831651
:100AD40003178C130C14831203170C080800F4007A
:100AE400F301F30171087302031808007308740713
:100AF400F20072088400831300080A128A115A252E
:100B04000A128A110130F2007208F307742DF20000
:100B1400F3017208831203178D0070088C0083168A
:100B240003178C130C150B08F1007108F3008B01EB
:100B340055308D00AA308D008C1473088B00000092
:100B4400831203130D1AA82D0000A22D8316031778
:100B54000C11831203130D120800831203131A08D5
:100B6400F9007908A8002608F0002708F100F2012E
:100B7400F3010030F700F430F6002430F5000030C3
:100B8400F4000A128A1105260A128A117008F90063
:100B94007108FA007208FB007308FC000230FD00C3
:100BA4007C0DFC0CFB0CFA0CF90CFD0BD22D790816
:100BB400FF3E83120313A9007A080318013EFF3E87
:100BC400AA00831603139801831203139801831652
:100BD400031787018715831203132A088316031347
:100BE4009A00831203132908831603139900181219
:100BF40018139811181598168312031318139811C3
:100C040018169817080083120313A101F31F172E57
:100C1400F009F109F209F309F00A0319F10A0319B9
:100C2400F20A0319F30AA101A10AF71F282EF409F5
:100C3400F509F609F709F40A0319F50A0319F60A7E
:100C44000319F70A0130F8007808A1060030A5005E
:100C54000030A4000030A3000030A2007308720426
:100C64007104700403197D2EA001A00AF31B482E01
:100C74000130F8000310F00DF10DF20DF30DF80B37
:100C84003C2E0130F8007808A007382E0130F80017
:100C94000310A20DA30DA40DA50DF80B4A2E730885
:100CA4007702031D5F2E72087602031D5F2E710802
:100CB4007502031D5F2E70087402031C702E7008E9
:100CC400F4027108031C710FF5027208031C720F01
:100CD400F6027308031C730FF70222140130031089
:100CE400F30CF20CF10CF00CFF3E031D712E0130DD
:100CF400A002031D482E210803198B2EA209A30963
:100D0400A409A509A20A0319A30A0319A40A031929
:100D1400A50A2508F3002408F2002308F10022089C
:100D2400F000080083120313B10133308400390842
:100D340083138000840A3A088000840A3B088000F8
:100D4400840A3C088000840A3D088000840A3E0826
:100D54008000B00103300A128A1164250A128A1134
:100D640083120313AF002F08B20083160317880100
:100D74008901831203131F108316031307118601BD
:100D84008312031386018030A6002530A7000A12BF
:100D94008A11AF250A128A118312031307118C1EBC
:100DA400E32E1A08AF003108333E84002F08831362
:100DB40080000130AF002F08B1073308A03A031DAB
:100DC400B1013108063A031DCE2EB10107153308CF
:100DD400A03A031DCE2E3808B03A031DCE2E350896
:100DE400340436043304AF002F08B000370830064B
:100DF400031DCE2E3508303A031D3D2F340832062C
:100E0400031DCE2E3608303A031D0A2F0614322F46
:100E14003608313A031D102F8614322F3608323A21
:100E2400031D162F0615322F3608333A031D1C2FC7
:100E34008615322F3608343A031D222F0616322F18
:100E44003608353A031D282F8616322F3608363ACF
:100E5400031D2E2F0617322F3608373A031986172B
:100E64000630AF002F08F10033300A128A117125C1
:100E74000A128A11CE2E831203133508313A031D48
:100E8400802F34083206031DCE2E3608303A031D57
:100E94004D2F0610752F3608313A031D532F861037
:100EA400752F3608323A031D592F0611752F36084F
:100EB400333A031D5F2F8611752F3608343A031D0C
:100EC400652F0612752F3608353A031D6B2F8612CF
:100ED400752F3608363A031D712F0613752F360801
:100EE400373A031986130630AF002F08F100333068
:100EF4000A128A1171250A128A11CE2E8312031343
:100F04003508353A031D962F34083206031DCE2EBC
:100F140086010630AF002F08F10033300A128A111F
:100F240071250A128A11CE2E831203133508343A1E
:100F3400031DAD2F34083206031DCE2EFF3086006C
:100F44000630AF002F08F10033300A128A117125E0
:100F54000A128A11CE2E831203133508323A031D66
:100F6400D12F03300A128A1164250A128A118312BE
:100F74000313AF002F08B2003208AF002F08B400EB
:100F84003208AF002F08B6000630AF002F08F1007A
:100F940033300A128A1171250A128A11CE2E831255
:100FA40003133508333A031DCE2E3608AF002F083D
:100FB400F00003300A128A1189250A128A11831259
:100FC40003133608AF002F08B2003208AF002F0811
:100FD400B4000630AF002F08F10033300A128A1132
:100FE40071250A128A11CE2EB901BA01BB01BC01C6
:0C0FF400BD01BE0183010A128A11942E77
:04400E00D2E3FFFFFB
:00000001FF
