:060000000A128A11F62F1E
:100AC400F000700883120313990083160313981817
:100AD4000800672DF0007008831203178D00831639
:100AE40003178C130C14831203170C080800F4006A
:100AF400F301F30171087302031808007308740703
:100B0400F20072088400831300080A128A11622515
:100B14000A128A110130F2007208F3077C2DF200E8
:100B2400F3017208831203178D0070088C0083167A
:100B340003178C130C150B08F1007108F3008B01DB
:100B440055308D00AA308D008C1473088B00000082
:100B5400831203130D1AB02D0000AA2D8316031758
:100B64000C11831203130D120800831203131A08C5
:100B7400F9007908A8002608F0002708F100F2011E
:100B8400F3010030F700F430F6002430F5000030B3
:100B9400F4000A128A110D260A128A117008F9004B
:100BA4007108FA007208FB007308FC000230FD00B3
:100BB4007C0DFC0CFB0CFA0CF90CFD0BDA2D7908FE
:100BC400FF3E83120313A9007A080318013EFF3E77
:100BD400AA00831603139801831203139801831642
:100BE400031787018715831203132A088316031337
:100BF4009A00831203132908831603139900181209
:100C040018139811181598168312031318139811B2
:100C140018169817080083120313A101F31F1F2E3F
:100C2400F009F109F209F309F00A0319F10A0319A9
:100C3400F20A0319F30AA101A10AF71F302EF409DD
:100C4400F509F609F709F40A0319F50A0319F60A6E
:100C54000319F70A0130F8007808A1060030A5004E
:100C64000030A4000030A3000030A2007308720416
:100C7400710470040319852EA001A00AF31B502EE1
:100C84000130F8000310F00DF10DF20DF30DF80B27
:100C9400442E0130F8007808A007402E0130F800F7
:100CA4000310A20DA30DA40DA50DF80B522E73086D
:100CB4007702031D672E72087602031D672E7108E2
:100CC4007502031D672E70087402031C782E7008C9
:100CD400F4027108031C710FF5027208031C720FF1
:100CE400F6027308031C730FF70222140130031079
:100CF400F30CF20CF10CF00CFF3E031D792E0130C5
:100D0400A002031D502E21080319932EA209A30942
:100D1400A409A509A20A0319A30A0319A40A031919
:100D2400A50A2508F3002408F2002308F10022088C
:100D3400F000080083120313B10132308400390833
:100D440083138000840A3A088000840A3B088000E8
:100D5400840A3C088000840A3D088000840A3E0816
:100D64008000B00103300A128A116C250A128A111C
:100D740083120313AF002F08B800831603178801EA
:100D84008901831203131F108316031307118601AD
:100D94008312031386018030A6002530A7000A12AF
:100DA4008A11B7250A128A118312031307118C1EA4
:100DB400EB2E1A08AF003108323E84002F0883134B
:100DC40080000130AF002F08B1073208A03A031D9C
:100DD400B1013108063A031DD62EB10107153208B8
:100DE400A03A031DD62E3708B03A031DD62E340878
:100DF400330435043204AF002F08B000360830063F
:100E04000319DF2FD62E3308380603191A2FD62ECE
:100E14000614342F8614342F0615342F8615342FD8
:100E24000616342F8616342F0617342F8617342FC0
:100E34003508303A03190A2F013A03190C2F033AE3
:100E440003190E2F013A0319102F073A0319122F11
:100E5400013A0319142F033A0319162F013A0319FF
:100E6400182F342F0630AF002F08F10032300A1249
:100E74008A1179250A128A11D62E83120313330894
:100E840038060319562FD62E0610702F8610702F91
:100E94000611702F8611702F0612702F8612702F74
:100EA4000613702F8613702F3508303A0319462F16
:100EB400013A0319482F033A03194A2F013A031937
:100EC4004C2F073A03194E2F013A0319502F033AB6
:100ED4000319522F013A0319542F702F0630AF0013
:100EE4002F08F10032300A128A1179250A128A1168
:100EF400D62E8312031333083806031DD62E86011B
:100F04000630AF002F08F10032300A128A11792519
:100F14000A128A11D62E8312031333083806031DCE
:100F2400D62EFF3086000630AF002F08F100323095
:100F34000A128A1179250A128A11D62E03300A124E
:100F44008A116C250A128A1183120313AF002F0829
:100F5400B8003808AF002F08B3003808AF002F08D6
:100F6400B5000630AF002F08F10032300A128A11A2
:100F740079250A128A11D62E831203133508AF007D
:100F84002F08F00003300A128A1191250A128A11DF
:100F9400831203133508AF002F08B8003808AF00D8
:100FA4002F08B3000630AF002F08F10032300A12C8
:100FB4008A1179250A128A11D62E83120313340852
:100FC400303A0319052F013A03193F2F033A031945
:100FD400A02F013A0319BE2F073A03198D2F013AA6
:100FE40003197B2FD62ED62EB901BA01BB01BC0141
:0C0FF400BD01BE0183010A128A119C2E6F
:04400E00D2E3FFFFFB
:00000001FF
