:060000000A128A11D82F3C
:100B1200013402340334043405340634F00070081E
:100B22008312031399008316031398180800942D57
:100B3200F0007008831203178D00831603178C13BD
:100B42000C14831203170C080800F300F1080319B0
:100B5200080073088400831300080A128A118F2583
:100B62000A128A110130F2007208F3070130F10211
:100B7200A72DF200F3017208831203178D0070088B
:100B82008C00831603178C130C150B08F1007108E7
:100B9200F3008B0155308D00AA308D008C14730840
:100BA2008B000000831203130D1AD92D0000D32DE0
:100BB200831603170C11831203130D1208008312FC
:100BC20003132008F0002108F100F201F3010030C4
:100BD200F700B730F6001B30F5000030F4000A12BF
:100BE2008A1136260A128A11700883120313A20090
:100BF2007108A3007208A4007308A5000230031054
:100C0200A50CA40CA30CA20CFF3E031D002E22086F
:100C1200FF3EA60023080318013EFF3EA7008316ED
:100C22000313980183120313980183160317870194
:100C32008715831203132708831603139A0083125E
:100C42000313260883160313990018121813981118
:100C5200181598168312031318139811181698175B
:100C6200831603130713871708000030FC000030B7
:100C7200FB000030FA000030F900730872047104BE
:100C8200700403198B2EFD01FD0AF31B562E013051
:100C9200F8000310F00DF10DF20DF30DF80B4A2ED2
:100CA2000130F8007808FD07462E0130F8000310E5
:100CB200F90DFA0DFB0DFC0DF80B582E7308770297
:100CC200031D6D2E72087602031D6D2E71087502CA
:100CD200031D6D2E70087402031C7E2E7008F40230
:100CE2007108031C710FF5027208031C720FF602E1
:100CF2007308031C730FF702791401300310F30C0D
:100D0200F20CF10CF00CFF3E031D7F2E0130FD02B0
:100D1200031D562E7C08F3007B08F2007A08F100CE
:100D22007908F000080083120313AE012F3084000B
:100D3200350883138000840A36088000840A370845
:100D42008000840A38088000840A39088000840AF6
:100D52003A088000AD0183160317880189018312C6
:100D620003131F1083160313071186018312031343
:100D720086018030A0002530A1000A128A11E025E8
:100D82000A128A118312031307118C1ED82E1A0815
:100D9200AC002E082F3E84002C0883138000013003
:100DA200AC002C08AE072F08A03A031DAE012E0896
:100DB200063A031DC32EAE0107152F08A03A031DE4
:100DC200C32E3408B03A031DC32E31083004320456
:100DD2002F04AC002C08AD0033082D06031DC32ED2
:100DE200B108031D2E2F03300A128A1199250A1207
:100DF2008A11831203133006031DC32EB208031D8A
:100E0200042F0614C32E3208013A031D0A2F86143A
:100E1200C32E3208023A031D102F0615C32E3208C4
:100E2200033A031D162F8615C32E3208043A031DFA
:100E32001C2F0616C32E3208053A031D222F8616D2
:100E4200C32E3208063A031D282F0617C32E320876
:100E5200073A031DC32E8617C32E3108013A031D1C
:100E62006C2F03300A128A1199250A128A118312F1
:100E720003133006031DC32EB208031D422F0610B2
:100E8200C32E3208013A031D482F8610C32E3208A2
:100E9200023A031D4E2F0611C32E3208033A031DD8
:100EA200542F8611C32E3208043A031D5A2F0612FC
:100EB200C32E3208053A031D602F8612C32E320854
:100EC200063A031D662F0613C32E3208073A031D86
:100ED200C32E8613C32E3108053A031D7D2F03301E
:100EE2000A128A1199250A128A11831203133006F3
:100EF200031DC32E8601C32E3108043A031D8F2F12
:100F020003300A128A1199250A128A1183120313D5
:100F12003006031DC32EFF308600C32E3108023A6D
:100F2200031DB02F03300A128A1199250A128A1161
:100F320083120313AC002C08B000310830043204D1
:100F42002F04AC002C08B3000630AC002C08F100D2
:100F52002F300A128A11A6250A128A11C32E831271
:100F620003133108033A031DC32E3208AC002C08C8
:100F7200F00003300A128A11BA250A128A1183126A
:100F820003133208AC002C08B000310830043204DC
:100F92002F04AC002C08B3000630AC002C08F10082
:100FA2002F300A128A11A6250A128A11C32E831221
:100FB20003130A128A1189250A128A11B5000A122C
:100FC2008A118A250A128A11B6000A128A118B2501
:100FD2000A128A11B7000A128A118C250A128A1182
:100FE200B8000A128A118D250A128A11B9000A1252
:0E0FF2008A118E25BA0083010A128A11942EEC
:04400E00D2E3FFFFFB
:00000001FF
