:060000000A128A11D82F3C
:100D92000134023403340434053406348312031359
:100DA200B5012F308400370883138000840A380885
:100DB2008000840A39088000840A3A088000840A84
:100DC2003B088000840A3C088000B60183160317A2
:100DD20088018901831203131F108316031307115D
:100DE2008601831203138601831603138710803052
:100DF20083120313A0002530A1000A128A112427AE
:100E02000A128A118312031387141530AE004B3075
:100E1200AD00D130AC00AC0B0C2FAD0B0C2FAE0BD8
:100E22000C2F00008312031387101530AE004B30D5
:100E3200AD00D130AC00AC0B1C2FAD0B1C2FAE0B98
:100E42001C2F0000032F831203132008F000210837
:100E5200F100F201F3010030F700F430F600243023
:100E6200F5000030F4000A128A117A270A128A1158
:100E7200700883120313A2007108A3007208A40071
:100E82007308A50002300310A50CA40CA30CA20C3D
:100E9200FF3E031D442F2208FF3EA600230803182D
:100EA200013EFF3EA700831603139801831203132A
:100EB20098018316031787018715831203132708E6
:100EC200831603139A00831203132608831603134F
:100ED20099001812181398111815981683120313F3
:100EE20018139811181698178316031307138717E8
:100EF20008000030FC000030FB000030FA00003037
:100F0200F90073087204710470040319CF2FFD01F4
:100F1200FD0AF31B9A2F0130F8000310F00DF10DBA
:100F2200F20DF30DF80B8E2F0130F8007808FD0753
:100F32008A2F0130F8000310F90DFA0DFB0DFC0D9C
:100F4200F80B9C2F73087702031DB12F72087602EB
:100F5200031DB12F71087502031DB12F70087402B1
:100F6200031CC22F7008F4027108031C710FF502F2
:100F72007208031C720FF6027308031C730FF70248
:100F8200791401300310F30CF20CF10CF00CFF3E5B
:100F9200031DC32F0130FD02031D9A2F7C08F300AD
:100FA2007B08F2007A08F1007908F0000800831249
:100FB20003130A128A11C9260A128A11B7000A12E9
:100FC2008A11CA260A128A11B8000A128A11CB267D
:100FD2000A128A11B9000A128A11CC260A128A113F
:100FE200BA000A128A11CD260A128A11BB000A120D
:0E0FF2008A11CE26BC0083010A128A11CF2E6E
:04400E00D2E3FFFFFB
:00000001FF
