:060000000A128A11F02F24
:10098A00F000700883120313990083160313981852
:10099A000800CA2CF0007008831203178D00831612
:1009AA0003178C130C14831203170C080800F000A9
:1009BA0070080319E82C8316031398128312031381
:1009CA001812981308008316031398168312031338
:1009DA00181698170800F400F301F301710873025E
:1009EA000318080073087407F2007208840083135E
:1009FA0000080A128A11C5240A128A110130F2006B
:100A0A007208F307F32CF200F3017208831203173A
:100A1A008D0070088C00831603178C130C150B08B5
:100A2A00F1007108F3008B0155308D00AA308D005A
:100A3A008C1473088B000000831203130D1A272DE0
:100A4A000000212D831603170C11831203130D12B4
:100A5A000800831203132008F0002108F100F201B4
:100A6A00F3010030F700F430F6002430F5000030CE
:100A7A00F4000A128A1184250A128A117008831254
:100A8A000313A2007108A3007208A4007308A5004A
:100A9A0002300310A50CA40CA30CA20CFF3E031DEC
:100AAA004E2D2208FF3EA60023080318013EFF3EF2
:100ABA00A700831603139801831203139801831660
:100ACA000317870187158312031327088316031355
:100ADA009A00831203132608831603139900181227
:100AEA0018139811181598168312031318139811CE
:100AFA001816981783160313071387170800003070
:100B0A00FC000030FB000030FA000030F9007308E6
:100B1A007204710470040319D92DFD01FD0AF31B37
:100B2A00A42D0130F8000310F00DF10DF20DF30DB4
:100B3A00F80B982D0130F8007808FD07942D013044
:100B4A00F8000310F90DFA0DFB0DFC0DF80BA62D9C
:100B5A0073087702031DBB2D72087602031DBB2D95
:100B6A0071087502031DBB2D70087402031CCC2D7D
:100B7A007008F4027108031C710FF5027208031C55
:100B8A00720FF6027308031C730FF702791401300F
:100B9A000310F30CF20CF10CF00CFF3E031DCD2DEB
:100BAA000130FD02031DA42D7C08F3007B08F2002E
:100BBA007A08F1007908F000080083120313B001E3
:100BCA00323084003E0883138000840A3F08800084
:100BDA00840A40088000840A41088000840A420886
:100BEA008000840A43088000AF0103300A128A1188
:100BFA00CF240A128A1183120313AC002C08B10005
:100C0A008316031788018901831203131F108316A1
:100C1A000313071186018312031386018316031334
:100C2A008710803083120313A0002530A1000A1216
:100C3A008A112E250A128A11033083120313AE0079
:100C4A000830AD007830AC00AC0B292EAD0B292E44
:100C5A00AE0B292E8312031307118C1E452E07147F
:100C6A001A08AC003008323E84002C088313800036
:100C7A000130AC002C08B0073208A03A031DB001BD
:100C8A003008063A031D2F2EB001071501300A124B
:100C9A008A11DC240A128A11831203133208A03A39
:100CAA00031D2F2E3708B03A031D2F2E34083304A4
:100CBA0035043204AC002C08AF0036082F06031D99
:100CCA002F2EB408031DBB2E33083106031D2F2E09
:100CDA00B508031D722E06149A2E3508013A031D13
:100CEA00782E86149A2E3508023A031D7E2E061592
:100CFA009A2E3508033A031D842E86159A2E350836
:100D0A00043A031D8A2E06169A2E3508053A031D43
:100D1A00902E86169A2E3508063A031D962E061729
:100D2A009A2E3508073A0319861700300A128A11D3
:100D3A00DC240A128A11033083120313AE0008302E
:100D4A00AD007830AC00AC0BA82EAD0BA82EAE0BC4
:100D5A00A82E063083120313AC002C08F10032309F
:100D6A000A128A11F0240A128A112F2E83120313EF
:100D7A003408013A031D132F33083106031D2F2EA1
:100D8A00B508031DCA2E0610F22E3508013A031DB6
:100D9A00D02E8610F22E3508023A031DD62E0611E1
:100DAA00F22E3508033A031DDC2E8611F22E350881
:100DBA00043A031DE22E0612F22E3508053A031DE7
:100DCA00E82E8612F22E3508063A031DEE2E061379
:100DDA00F22E3508073A0319861300300A128A11CF
:100DEA00DC240A128A11033083120313AE0008307E
:100DFA00AD007830AC00AC0B002FAD0B002FAE0B62
:100E0A00002F063083120313AC002C08F100323095
:100E1A000A128A11F0240A128A112F2E831203133E
:100E2A003408053A031D3F2F33083106031D2F2EC0
:100E3A00860100300A128A11DC240A128A11033050
:100E4A0083120313AE000830AD007830AC00AC0B4F
:100E5A002C2FAD0B2C2FAE0B2C2F06308312031325
:100E6A00AC002C08F10032300A128A11F0240A125E
:100E7A008A112F2E831203133408043A031D6C2F90
:100E8A0033083106031D2F2EFF30860000300A1268
:100E9A008A11DC240A128A11033083120313AE006A
:100EAA000830AD007830AC00AC0B592FAD0B592F80
:100EBA00AE0B592F063083120313AC002C08F10035
:100ECA0032300A128A11F0240A128A112F2E831242
:100EDA0003133408023A031DA62F03300A128A119B
:100EEA00CF240A128A1183120313AC002C08B10012
:100EFA003108AC002C08B3003108AC002C08B5004E
:100F0A0000300A128A11DC240A128A110330831271
:100F1A000313AE000830AD007830AC00AC0B932F51
:100F2A00AD0B932FAE0B932F063083120313AC0035
:100F3A002C08F10032300A128A11F0240A128A119E
:100F4A002F2E831203133408033A031D2F2E35085C
:100F5A00AC002C08F00003300A128A1108250A1284
:100F6A008A11033083120313AE000830AD007830C3
:100F7A00AC00AC0BBE2FAD0BBE2FAE0BBE2F033099
:100F8A000A128A11CF240A128A1183120313AC009F
:100F9A002C08B10000300A128A11DC240A128A11C4
:100FAA00033083120313AE000830AD007830AC0072
:100FBA00AC0BDD2FAD0BDD2FAE0BDD2F0630831210
:100FCA000313AC002C08F10032300A128A11F02403
:100FDA000A128A112F2EB801B901BA01BB01BC014C
:100FEA00BD01BE01BF01C001C101C201C30183012C
:060FFA000A128A11E22D2B
:04400E00D2E3FFFFFB
:00000001FF
