:060000000A128A11D82F3C
:100D5000013402340334043405340634F0007008DE
:100D60008312031399008316031398180800B32EF7
:100D7000F300F108031908007308840083130008C6
:100D80000A128A11AE260A128A110130F200720884
:100D9000F3070130F102B92E831203132008F0008B
:100DA0002108F100F201F3010030F700B730F6003E
:100DB0001B30F5000030F4000A128A117A270A125B
:100DC0008A11700883120313A2007108A30072082D
:100DD000A4007308A50002300310A50CA40CA30CFA
:100DE000A20CFF3E031DEC2E2208FF3EA6002308A6
:100DF0000318013EFF3EA7008316031398018312D8
:100E000003139801831603178701871583120313B1
:100E10002708831603139A008312031326088316E8
:100E200003139900181218139811181598168312A5
:100E30000313181398111816981783160313071322
:100E40008717080083120313B4012D30840035087E
:100E500083138000840A36088000840A37088000E3
:100E6000840A38088000840A39088000840A3A0815
:100E70008000B301831603178801890183120313CD
:100E80001F108316031307118601831203138601B3
:100E90008030A0002530A1000A128A11CC260A1247
:100EA0008A118312031307118C1E662F1A08AC00D7
:100EB00034082D3E84002C08831380000130AC00E0
:100EC0002C08B4072D08A03A031DB4013408063AD3
:100ED000031D512FB40107150630AC002C08F1009A
:100EE0002D300A128A11B8260A128A1183120313AE
:100EF0000711512F0030FC000030FB000030FA00D9
:100F00000030F90073087204710470040319CF2FC4
:100F1000FD01FD0AF31B9A2F0130F8000310F00DBC
:100F2000F10DF20DF30DF80B8E2F0130F80078085B
:100F3000FD078A2F0130F8000310F90DFA0DFB0DA3
:100F4000FC0DF80B9C2F73087702031DB12F72085C
:100F50007602031DB12F71087502031DB12F7008B1
:100F60007402031CC22F7008F4027108031C710F75
:100F7000F5027208031C720FF6027308031C730F4C
:100F8000F702791401300310F30CF20CF10CF00CA1
:100F9000FF3E031DC32F0130FD02031D9A2F7C0865
:100FA000F3007B08F2007A08F1007908F0000800ED
:100FB000831203130A128A11A8260A128A11B50095
:100FC0000A128A11A9260A128A11B6000A128A1177
:100FD000AA260A128A11B7000A128A11AB260A122F
:100FE0008A11B8000A128A11AC260A128A11B900B5
:100FF0000A128A11AD26BA0083010A128A11222F21
:04400E00D2E3FFFFFB
:00000001FF
