:060000000A128A11F62F1E
:100A5C00F00083160313981C2F2D700883120313B8
:100A6C0099000800F0007008831203178D0083169C
:100A7C0003178C130C14831203170C080800F400D2
:100A8C00F301F3017108730203180800730874076B
:100A9C00F20072088400831300080A128A112E25B2
:100AAC000A128A110130F2007208F307482DF20085
:100ABC00F3017208831203178D0070088C008316E3
:100ACC0003178C130C150B08F1007108F3008B0144
:100ADC0055308D00AA308D008C1473088B000000EB
:100AEC00831203130D1A7C2D0000762D8316031729
:100AFC000C11831203130D120800831203131A082E
:100B0C00F9007908A8002608F0002708F100F20186
:100B1C00F3010030F700F430F6002430F50000301B
:100B2C00F4000A128A11D9250A128A117008F900E8
:100B3C007108FA007208FB007308FC000230FD001B
:100B4C007C0DFC0CFB0CFA0CF90CFD0BA62D79089A
:100B5C00FF3E83120313A9007A080318013EFF3EDF
:100B6C00AA008316031398018312031398018316AA
:100B7C00031787018715831203132A08831603139F
:100B8C009A00831203132908831603139900181271
:100B9C00181398111815981683120313181398111B
:100BAC0018169817080083120313A101F31FEB2DDD
:100BBC00F009F109F209F309F00A0319F10A031912
:100BCC00F20A0319F30AA101A10AF71FFC2DF4097B
:100BDC00F509F609F709F40A0319F50A0319F60AD7
:100BEC000319F70A0130F8007808A1060030A500B7
:100BFC000030A4000030A3000030A200730872047F
:100C0C00710470040319512EA001A00AF31B1C2EB1
:100C1C000130F8000310F00DF10DF20DF30DF80B8F
:100C2C00102E0130F8007808A0070C2E0130F800C7
:100C3C000310A20DA30DA40DA50DF80B1E2E730809
:100C4C007702031D332E72087602031D332E7108B2
:100C5C007502031D332E70087402031C442E700899
:100C6C00F4027108031C710FF5027208031C720F59
:100C7C00F6027308031C730FF702221401300310E1
:100C8C00F30CF20CF10CF00CFF3E031D452E013061
:100C9C00A002031D1C2E210803195F2EA209A30913
:100CAC00A409A509A20A0319A30A0319A40A031982
:100CBC00A50A2508F3002408F2002308F1002208F5
:100CCC00F000080083120313B301353084003B0895
:100CDC0083138000840A3C088000840A3D0880004D
:100CEC00840A3E088000840A3F088000840A400879
:100CFC008000B20103300A128A1138250A128A11B7
:100D0C0083120313AF002F08B40083160317880156
:100D1C008901831203131F10831603130711860115
:100D2C0083120313860183160313871080308312FA
:100D3C000313A6002530A7000A128A1183250A1274
:100D4C008A118312031307118C1EBC2E1A08AF00D4
:100D5C003308353E84002F08831380000130AF0028
:100D6C002F08B3073508A03A031DB3013308063A20
:100D7C00031DA72EB30107153508A03A031DA72E96
:100D8C003A08B03A031DA72E370836043804350448
:100D9C00AF002F08B20039083206031DA72EB70882
:100DAC00031D142F36083406031DA72EB808031D87
:100DBC00E12E0614092F3808013A031DE72E86147C
:100DCC00092F3808023A031DED2E0615092F380895
:100DDC00033A031DF32E8615092F3808043A031D18
:100DEC00F92E0616092F3808053A031DFF2E861614
:100DFC00092F3808063A031D052F0617092F380846
:100E0C00073A031986170630AF002F08F10035306A
:100E1C000A128A1145250A128A11A72E831203136E
:100E2C003708013A031D642F36083406031DA72E1C
:100E3C00B808031D232F06104B2F3808013A031D49
:100E4C00292F86104B2F3808023A031D2F2F06111D
:100E5C004B2F3808033A031D352F86114B2F3808BA
:100E6C00043A031D3B2F06124B2F3808053A031D7D
:100E7C00412F86124B2F3808063A031D472F0613B5
:100E8C004B2F3808073A031986130330B10008308A
:100E9C00B0007830AF00AF0B512FB00B512FB10B0E
:100EAC00512F063083120313AF002F08F100353099
:100EBC000A128A1145250A128A11A72E83120313CE
:100ECC003708053A031D882F36083406031DA72E54
:100EDC0086010330B1000830B0007830AF00AF0BA2
:100EEC00752FB00B752FB10B752F063083120313B2
:100EFC00AF002F08F10035300A128A1145250A126D
:100F0C008A11A72E831203133708043A031DAD2F41
:100F1C0036083406031DA72EFF3086000330B100BF
:100F2C000830B0007830AF00AF0B9A2FB00B9A2F6F
:100F3C00B10B9A2F063083120313AF002F08F10068
:100F4C0035300A128A1145250A128A11A72E8312EE
:100F5C0003133708023A031DD12F03300A128A11EA
:100F6C0038250A128A1183120313AF002F08B4001C
:100F7C003408AF002F08B6003408AF002F08B800B3
:100F8C000630AF002F08F10035300A128A114525C2
:100F9C000A128A11A72E831203133708033A031D72
:100FAC00A72E3808AF002F08F00003300A128A1160
:100FBC005D250A128A11831203133808AF002F081B
:100FCC00B4003408AF002F08B6000630AF002F086D
:100FDC00F10035300A128A1145250A128A11A72E02
:100FEC00BB01BC01BD01BE01BF01C00183010A12DE
:040FFC008A11682EC0
:04400E00D2E3FFFFFB
:00000001FF
