:060000000A128A11F02F24
:1009FE00F0007008831203139900831603139818DE
:100A0E000800042DF0007008831203178D00831662
:100A1E0003178C130C14831203170C080800F30031
:100A2E00F108031908007308840000080A128A11DD
:100A3E00FF240A128A110130F2007208F307013006
:100A4E00F102172DF00070080319352D83160313CC
:100A5E0098128312031318129813080083160313A7
:100A6E00981683120313181698170800F200F30154
:100A7E007208831203178D0070088C0083160317FB
:100A8E008C130C150B08F1007108F3008B01553017
:100A9E008D00AA308D008C1473088B000000831219
:100AAE0003130D1A5C2D0000562D831603170C111F
:100ABE00831203130D120800FD0077308400831299
:100ACE00031337088000840A38088000840A390826
:100ADE008000840A3A088000840A3B088000840A59
:100AEE003C088000A030F6007608F7007D08F6007E
:100AFE007608F8007408F6007608F9007508F60016
:100B0E007608FA007D0874047504A038F60076089D
:100B1E00FB00B030F6007608FC00071500300A1214
:100B2E008A1129250A128A110630F6007608F1007C
:100B3E0077300A128A111625080083120313200833
:100B4E00F0002108F100F201F3010030F700F4305B
:100B5E00F6002430F5000030F4000A128A11FA254E
:100B6E000A128A11700883120313A2007108A300DF
:100B7E007208A4007308A50002300310A50CA40C83
:100B8E00A30CA20CFF3E031DC42D2208FF3EA6009F
:100B9E0023080318013EFF3EA70083160313980196
:100BAE008312031398018316031787018715831287
:100BBE0003132708831603139A00831203132608C0
:100BCE0083160313990018121813981118159816F6
:100BDE0083120313181398111816981783160313FC
:100BEE000713871708000030FC000030FB000030B0
:100BFE00FA000030F90073087204710470040319CE
:100C0E004F2EFD01FD0AF31B1A2E0130F8000310C2
:100C1E00F00DF10DF20DF30DF80B0E2E0130F80064
:100C2E007808FD070A2E0130F8000310F90DFA0DB1
:100C3E00FB0DFC0DF80B1C2E73087702031D312ED5
:100C4E0072087602031D312E71087502031D312EB6
:100C5E0070087402031C422E7008F4027108031C03
:100C6E00710FF5027208031C720FF6027308031C53
:100C7E00730FF702791401300310F30CF20CF10C20
:100C8E00F00CFF3E031D432E0130FD02031D1A2EF4
:100C9E007C08F3007B08F2007A08F1007908F00076
:100CAE00080083120313B001313084003D08831312
:100CBE008000840A3E088000840A3F088000840A6F
:100CCE0040088000840A41088000840A420880009F
:100CDE00AF018316031788018901831203131F10B6
:100CEE0083160313071186018312031386018316DD
:100CFE0003138710803083120313A0002530A10048
:100D0E000A128A11A4250A128A11831203130711DB
:100D1E008C1EA22E07141A08AC003008313E840037
:100D2E002C08831380000130AC002C08B00731086A
:100D3E00A03A031DB0013008063A031D8C2EB001F7
:100D4E00071501300A128A1129250A128A118312F7
:100D5E0003133108A03A031D8C2E3608B03A031D3A
:100D6E008C2E3308320434043104AC002C08AF004E
:100D7E0035082F06031D8C2EB308031D0A2F0330D2
:100D8E000A128A1109250A128A11831203133206D6
:100D9E00031D8C2EB408031DD62E0614FE2E340809
:100DAE00013A031DDC2E8614FE2E3408023A031D72
:100DBE00E22E0615FE2E3408033A031DE82E861584
:100DCE00FE2E3408043A031DEE2E0616FE2E3408AF
:100DDE00053A031DF42E8616FE2E3408063A031D20
:100DEE00FA2E0617FE2E3408073A03198617F40159
:100DFE003408AC002C08F50032080A128A1163255B
:100E0E000A128A118C2E831203133308013A031D22
:100E1E00552F03300A128A1109250A128A118312DC
:100E2E0003133206031D8C2EB408031D202F06104B
:100E3E00482F3408013A031D262F8610482F3408F8
:100E4E00023A031D2C2F0611482F3408033A031DB6
:100E5E00322F8611482F3408043A031D382F0612FC
:100E6E00482F3408053A031D3E2F8612482F3408AA
:100E7E00063A031D442F0613482F3408073A031968
:100E8E008613F401F40A3408AC002C08F50032087D
:100E9E000A128A1163250A128A118C2E83120313E9
:100EAE003308053A031D762F03300A128A110925DD
:100EBE000A128A11831203133206031D8C2E860129
:100ECE000530AC002C08F4003408AD002D08F500F8
:100EDE0032080A128A1163250A128A118C2E831285
:100EEE0003133308043A031D982F03300A128A1194
:100EFE0009250A128A11831203133206031D8C2E42
:100F0E00FF3086000430AC002C08F4003408AD002D
:100F1E002D08F50032080A128A1163250A128A1169
:100F2E008C2E831203133308023A031DB82F03309D
:100F3E000A128A1109250A128A1183120313AC00B0
:100F4E002C08B2000230AC002C08F4003208AD00C0
:100F5E002D08F50032080A128A1163250A128A1129
:100F6E008C2E831203133308033A031D8C2E340880
:100F7E00AC002C08F00003300A128A113D250A122B
:100F8E008A11033083120313AE000830AD0078309F
:100F9E00AC00AC0BD02FAD0BD02FAE0BD02F03303F
:100FAE000A128A1109250A128A1183120313AC0040
:100FBE002C08B2000330AC002C08F4003208AD004F
:100FCE002D08F50032080A128A1163250A128A11B9
:100FDE008C2EB701B801B901BA01BB01BC01BD012C
:100FEE00BE01BF01C001C101C20183010A128A11F3
:020FFE00582E6B
:04400E00D2E3FFFFFB
:00000001FF
