:100000000A128A111B2E0A128A11E62E0A128A116E
:10001000EA2E0A128A11EE2E0A128A11F22E0A1202
:100020008A11F62E0A128A11FA2E0A128A11FE2E4F
:100030000A128A11022F0A128A11BC2E0A128A1180
:10004000C12E0A128A11C62E0A128A11CB2E0A124A
:100050008A11D02E0A128A11162F0A128A111C2F09
:100060000A128A11222F0A128A11282F0A128A11C3
:020070002E2F31
:100C1800F000700899008316981808000F2E6400D9
:100C28008001840A0406031900340406142E831371
:100C38002030840048300A128A1113260A128A11B9
:100C4800A0308400C8300A128A11132683010A12C0
:100C58008A114C2EF401F501F601F70173087702A9
:100C6800031D402E72087602031D402E710875027E
:100C7800031D402E700874020318080000000000CD
:100C8800F40A0319F50A0319F60A0319F70A322EAA
:100C9800D4010A128A1148270A128A11D601D501ED
:100CA8005508F10056080A128A11B3260A128A1149
:100CB800D20054085507D00050075204D300203002
:100CC8005407D00055085007D1008400530880000D
:100CD8000830D50A5502031C542E0830D4070530B5
:100CE800D60A5602031C532ED401D6015608A03E3C
:100CF800840083130008D0005608203E84000008B2
:100D0800500603199A2E5608203E840000080A123D
:100D18008A110C260A128A113230F000F101F20110
:100D2800F3010A128A112E260A128A11831203135A
:100D38002830D60A5602031C7A2ED6015608203EC1
:100D4800840083130008D0005608A03E8400500891
:100D580080002830D60A56020318522EA22EF2001E
:100D680014270A128A117108E4260A128A11D52E4C
:100D7800003007180130F300E22E003087180130E8
:100D8800F300E22E003007190130F300E22E0030A4
:100D980087190130F300E22E0030071A0130F30002
:100DA800E22E72088400053004020318E22E003097
:100DB8008A000310040D04071B3E82007308080014
:100DC800F000062F0610861006110800061486107B
:100DD8000611080006108614061108000614861469
:100DE800061108000610861006150800061486105D
:100DF8000615080006108614061508000614861441
:100E0800061508007008840008300402031808005A
:100E180000308A000310040D0407033E8200080016
:100E2800F0003A2F86110616861605148514080058
:100E380086150612861605148514080086150616EA
:100E480086120514851408008615061686160510E0
:100E580085140800861506168616051485100800E0
:100E68008615061686160514851408007008840071
:100E7800053004020318342F00308A000310040DD3
:100E880004072A3E8200080059270A128A11803076
:100E980083120313C8002530C900702783128615F2
:100EA8000616861605148514080083160714871479
:100EB80007158715071606108610061186110612E3
:100EC800861205108510031708108810091089105C
:100ED80009118911091208004808F0004908F100B1
:100EE8007A30F201F301F701F6001230F500F4014F
:100EF800B8270A128A117008CA007108CB00720854
:100F0800CC007308CD0002300310CD0CCC0CCB0CF8
:100F1800CA0CFF3E031D882F4B08CF004A08CE009D
:100F2800FF30CE070318CF0ACF0783169801831224
:100F380098018316031787018715831203134F0837
:100F480083169A0083124E088316990018121813F4
:100F580098111815981683121813981118169817BF
:100F68008316071387170800F801F901FA01FB0136
:100F780073087204710470040319F72FFC01FC0A4A
:100F8800F31BCC2F0310F00DF10DF20DF30DC32F51
:100F98000310F80DF90DFA0DFB0D73087702031D08
:100FA800DF2F72087602031DDF2F71087502031DFB
:100FB800DF2F70087402031CF12F7008F402710807
:100FC800031C710FF5027208031C720FF6027308F6
:100FD800031C730FF70278140310F30CF20CF10CD6
:100FE800F00CFC0BCC2F7B08F3007A08F200790890
:080FF800F1007808F000080088
:04400E00D2E0FFFEFF
:00000001FF
