:060000000A128A116C2DAA
:1009A8008312031390011012901290100800FC3467
:1009B8006034DA34F2346634B634BE34E034FE34AB
:1009C800F6347E088A007F0882000A128A11E5241C
:1009D8000A128A118000840A04087D06031900346B
:1009E800FF0A0319FE0AE92CF0007008031DFD2C0C
:1009F800052D8316031398128312031318129813E4
:100A08000D2D8316031398168312031318169817BF
:100A18000D2D0800252D831203131010FF308F00B1
:100A2800FC308E000C101014192D0C1C1C2D1D2DC3
:100A3800192D1E2DFF30F0070318F10AFF30F107BA
:100A4800252D71087004031D2A2D2B2D0F2D2C2DFB
:100A58000800442D831203131010F4308F00473020
:100A68008E000C101014382D0C1C3B2D3C2D382DED
:100A78003D2DFF30F0070318F10AFF30F107442D30
:100A880071087004031D492D4A2D2E2D4B2D080089
:100A9800F100622D71088400831300088312031388
:100AA8009900562D83160313981C5B2D5C2D562D2B
:100AB8005D2D0130F0007008F107622D7108840087
:100AC80083138008031D692D6A2D4E2D6B2D080098
:100AD800BD01BE01BF01C001C101C201C301C40102
:100AE800C501C601C701C801C901CA01CB018313E9
:100AF8005630FD000430FE00DB30FF004C3084002F
:100B08000A128A11E9240A128A1183010A128A1127
:100B1800DE2E831203132008F0002108F100F201F1
:100B2800F3010030F700A830F600C030F5000030BF
:100B3800F4000A128A11DC250A128A11700883123D
:100B48000313A2007108A3007208A4007308A5008B
:100B580004300310A50CA40CA30CA20CFF3E031D2B
:100B6800AD2D2208FF3EA6002608A7008316031312
:100B780098018312031398018316031399018312B2
:100B8800031399019A01831603138C120C12831212
:100B98000313270883160313990018159816831250
:100BA80003131816981783160313071387170800DB
:100BB8000030FC000030FB000030FA000030F90083
:100BC80073087204710470040319EB2DEC2D3F2E89
:100BD800FD01FD0AFD2D0130F8000310F00DF10DA7
:100BE800F20DF30DF80BF12D0130F8007808FD0730
:100BF800FD2DF31F002E012EEF2D032E032E0130A5
:100C0800F8000310F90DFA0DFB0DFC0DF80B052E7D
:100C180073087702031D1A2E72087602031D1A2E16
:100C280071087502031D1A2E70087402031C1D2E0C
:100C38001E2E2E2E7008F4027108031C710FF50287
:100C48007208031C720FF6027308031C730FF70275
:100C580079142E2E01300310F30CF20CF10CF00C69
:100C6800FF3E031D2F2E0130FD02031D3C2E3D2E9D
:100C7800032E3F2E3F2E7C08F3007B08F2007A08F3
:100C8800F1007908F000482E08008312031386014A
:100C98000710871007118711071247084C3E840078
:100CA800831300088600071487100711871107129D
:100CB8000530F0000030F1000A128A110E250A12E0
:100CC8008A118312031386010710871007118711F1
:100CD800071248084C3E840083130008860007105A
:100CE80087140711871107120530F0000030F10052
:100CF8000A128A110E250A128A1183120313860119
:100D08000710871007118711071249084C3E840005
:100D1800831300088600071087100715871107122C
:100D28000530F0000030F1000A128A110E250A126F
:100D38008A11831203138601071087100711871180
:100D480007124A084C3E84008313000886000710E7
:100D580087100711871507120530F0000030F100E1
:100D68000A128A110E250A128A11831203138601A8
:100D7800071087100711871107124B084C3E840093
:100D880083130008860007108710071187110716BC
:100D98000530F0000030F1000A128A110E250A12FF
:100DA8008A11831203138601071087100711871110
:100DB80007120800333084003D3083120313A80063
:100DC8000408A9000A30AA00280884008313000830
:100DD800AB00A80A290884002B088000A90AAA0BDE
:100DE800E82EB101B201B0010030AF000030AE0012
:100DF8000030AD000030AC008030A0002530A100EC
:100E08000A128A118D250A128A1183160313860184
:100E180007309F00071087100711871107128712E4
:100E28008C160B108B110A128A11D4240A128A11FB
:100E38008312031386010710871007118711071201
:100E48008712C830F0000030F1000A128A112D25EF
:100E58000A128A112F2F8312031387128C1E352F23
:100E6800362F552F1A08A8003208333E8400280868
:100E7800831380000130A8002808B20733087E3A9F
:100E88000319472F482F4A2FB2014A2F3208093A2F
:100E9800031D4F2F502F552FB201B001B00A552F07
:100EA800552F3008031D592FF02F01300A128A11CF
:100EB800F8240A128A11831203133B087F3A031D90
:100EC800662F672FEE2F3408393A031D6C2F6D2FCC
:100ED800EE2F3508A8002808B1003108303A031D64
:100EE800762F772F912F3608D03EA8002808C70004
:100EF8003708D03EA8002808C8003808D03EA80007
:100F08002808C9003908D03EA8002808CA003A08AD
:100F1800D03EA8002808CB00E02F3108323A031D44
:100F2800962F972FE02F0A30F0000030F1000A12B8
:100F38008A112D250A128A117E3083120313A80004
:100F48002808B3003930A8002808B4003130A800B8
:100F58002808B5003030A8002808B6003030A800AE
:100F68002808B7003030A8002808B800050801395B
:100F78003038A8002808B900050C01393038A80015
:100F88002808BA007F30A8002808BB00BC018716D3
:100F980000300A128A11F8240A128A1133300A1210
:100FA8008A114C250A128A1101300A128A11F82472
:100FB8000A128A11E02FE02F83120313B101B30143
:100FC800B401B501B601B701B801B901BA01BB0155
:100FD800BC01EE2FB001F02F0A128A1149260A121D
:100FE8008A1100300A128A11F8240A128A112F2F46
:080FF8002F2F0A128A110028B4
:02400E003AFD79
:00000001FF
