:060000000A128A110C280F
:10000800FE00030EF7000A08F8000A128A117E297A
:100018000A128A11B52AA30002308700A401230816
:1000280024020715031883280530A2009130A10087
:10003800D230A000A00B1E28A10B1E28A20B1E2840
:100048002528CF2005308715A2009130A100D23095
:10005800A000A00B2D28A10B2D28A20B2D28342899
:10006800CF2005300716A2009130A100D230A000A1
:10007800A00B3C28A10B3C28A20B3C284328CF20EE
:1000880005308716A2009130A100D230A000A00B45
:100098004B28A10B4B28A20B4B285228CF20053008
:1000A8000717A2009130A100D230A000A00B5A2857
:1000B800A10B5A28A20B5A286128CF200530871790
:1000C800A2009130A100D230A000A00B6928A10B9A
:1000D8006928A20B692870280230CF2087000530D4
:1000E800A2009130A100D230A000A00B7928A10B6A
:1000F8007928A20B79288028CF20A40A1328053054
:10010800A2009130A100D230A000A00B8928A10B39
:100118008928A20B89289028CF2005308715A200AE
:100128009130A100D230A000A00B9828A10B9828EC
:10013800A20B98289F28CF2005300716A2009130DF
:10014800A100D230A000A00BA728A10BA728A20BC2
:10015800A728AE28CF2005308716A2009130A1002D
:10016800D230A000A00BB628A10BB628A20BB62847
:10017800BD28CF2005300717A2009130A100D2304A
:10018800A000A00BC528A10BC528A20BC528CC2808
:10019800CF2087170800831203130800A30001303B
:1001A8008700A40123082402871403182429662140
:1001B8000A128A117B21071566210A128A117B21EE
:1001C800871566210A128A117B21071666210A12F1
:1001D8008A117B21871666210A128A117B2107174B
:1001E80066210A128A117B21871766210A128A1151
:1001F8007B21871366210A128A117B210713662146
:100208000A128A117B21871266210A128A117B2120
:10021800071266210A128A117B21871166210A12A8
:100228008A117B21071166210A128A117B21871006
:1002380066210A128A117B21061D0800A40AD62805
:1002480066210A128A117B21071566210A128A1172
:100258007B21871566210A128A117B2107166621E0
:100268000A128A117B21871666210A128A117B21BC
:10027800071766210A128A117B21871766210A123D
:100288008A117B21871066210A128A117B210711A6
:1002980066210A128A117B21871166210A128A11A6
:1002A8007B21071266210A128A117B218712662197
:1002B8000A128A117B21071366210A128A117B21EF
:1002C8008713080006196A29FC01FC0A7C0B6D29B2
:1002D80008000430A2000C30A1003530A000A00BAB
:1002E8007329A10B7329A20B73297A290800831299
:1002F8000313080004220A128A11003A0319FA2982
:10030800F90A0319FA0A7C30F0009230F1000A2247
:100318000A128A117B0B9E2900307A027830031961
:100328007902031C9E29FB010710F901FA01012239
:100338000A128A117C0BFA2901307A022C3003192F
:100348007902031CFA298710FC01F901FA0101223C
:100358000A128A1105300711F6009130F500D230E3
:10036800F400F40BB529F50BB529F60BB529BC2912
:10037800252205308711F6009130F500D230F400BF
:10038800F40BC429F50BC429F60BC429CB29252263
:1003980005300712F6009130F500D230F400F40B66
:1003A800D329F50BD329F60BD329DA2925220530D1
:1003B8008712F6009130F500D230F400F40BE229F0
:1003C800F50BE229F60BE229E92925220530071366
:1003D800F6009130F500D230F400F40BF129F50B5A
:1003E800F129F60BF129F8292522871378088A00C4
:1003F800770E8300FE0E7E0E09000C101010080008
:10040800003025220C1801300139080010100C109A
:10041800710870040319202A700A0319710A031954
:10042800202A7108F3007008F200F209F309730832
:100438008F0070098E00222A8F018E010C10101473
:100448000800831203130800FC01FB01F901FA01FB
:100458000A128A119D220A128A110330A001A00AE9
:100468000A128A1185220A128A1101300A128A1187
:10047800AA220A128A118618542A7C30FB01FB0A28
:10048800F901FA01A0009230A1000A128A116A2229
:100498000A128A1103300A128A11D2200A128A110A
:1004A80006193F2A7C30FC01FC0AF901FA01A00078
:1004B8009230A1000A128A116A220A128A110330A4
:1004C8000A128A110F200A128A113F2A10100C10E2
:1004D800210820040319802A200A0319210A031974
:1004E800802A2108A3002008A200A209A309230842
:1004F8008F0020098E00822A8F018E010C101014A3
:100508000800A2009001A100A10E10082106CF3911
:10051800210690009010101310100C108F018E01FE
:10052800200803199A2A83160C14080083160C1045
:100538000800831687010614861406150317880118
:100548008901831203138701860108008312A00022
:1005580020080319B22A0B178B1708000B138B13EB
:100568000800F901FA01FB01FC0183010A128A1152
:02057800282A2F
:04400E00D2E3FFFFFB
:00000001FF
