:060000000A128A11FC2F18
:100BF800831203130C101010080000308312031323
:100C08000C1801300800F2008312031390017208D7
:100C1800F100F10E10087106CF397106900090109E
:100C2800101310100C108F018E01701C1F2E8316CC
:100C380003130C140800831603130C100800831206
:100C4800031310100C10710870040319412E700959
:100C5800F2007109F300F20A0319F30A7208FF3E61
:100C6800F40073080318013EFF3EF50075088F0075
:100C78007003FF3AFF3E8E00432E8F018E010C1049
:100C8800101408000030FC000030FB000030FA00AF
:100C98000030F900701C642E7408F90775080311F8
:100CA8000318013E031DFA07760803110318013ED5
:100CB800031DFB07770803110318013E031DFC07FA
:100CC8000130F8000310F40DF50DF60DF70DF80BD3
:100CD800662E01300310F30CF20CF10CF00CFF3E01
:100CE800031D6E2E7308720471047004031D4E2ECA
:100CF8007C08F3007B08F2007A08F1007908F0001C
:100D0800080083120313C401C50183160317880161
:100D18008901831203131F10831603138614861187
:100D28000611051485140515851183120313851101
:100D3800F00103300A128A1107260A128A11831257
:100D480003130518C22EC408031DC22E0530C300A4
:100D58009130C200D230C100C10BB02EC20BB02EF0
:100D6800C30BB02EB72E83120313C401C40A851512
:100D780064300A128A11F0260A128A110A128A119C
:100D880001260A128A11013A031DD62E0130831258
:100D98000313C1004108C50764300A128A11F026FE
:100DA8000A128A113230831203134502031CA32E40
:100DB800C5010A128A11FC250A128A11831203132B
:100DC800051CE92E8511C401A32E64300A128A116C
:100DD800F0260A128A11A32E83120313B8000030DA
:100DE800A3000030A2000330A100E830A000100EDC
:100DF8000339AE00AE0A0030F700B730F6001B30FA
:100E0800F5000030F4003808AF00B001B101B201BC
:100E18003208F3003108F2003008F1002F08F00022
:100E28000A128A1146260A128A11700883120313BD
:100E3800B3007108B4007208B5007308B600023038
:100E4800B700360DB60CB50CB40CB30CB70B252F88
:100E5800322F360DB60CB50CB40CB30CAE0B2D2FCF
:100E68003608A7003508A6003408A5003308A400F2
:100E78000A128A116D270A128A1183120313230892
:100E8800BC002208BB002108BA002008B9000030C5
:100E98003C02031D592F00303B02031D592FFF3020
:100EA8003A02031D592FFF303902031C632F00300B
:100EB800BC000030BB00FF30BA00FF30B9003A0870
:100EC800F101F1073908F001F0070A128A11232607
:100ED800080083120313A901A31F7F2FA009A109EA
:100EE800A209A309A00A0319A10A0319A20A03194E
:100EF800A30AA901A90AA71F902FA409A509A60951
:100F0800A709A40A0319A50A0319A60A0319A70A17
:100F18000130FD007D08A9060030AD000030AC00AE
:100F28000030AB000030AA0023082204210420046A
:100F38000319E52FA801A80AA31BB02F0130FD0053
:100F48000310A00DA10DA20DA30DFD0BA42F0130C0
:100F5800FD007D08A807A02F0130FD000310AA0D91
:100F6800AB0DAC0DAD0DFD0BB22F23082702031DF1
:100F7800C72F22082602031DC72F21082502031D9B
:100F8800C72F20082402031CD82F2008A4022108F8
:100F9800031C210FA5022208031C220FA602230806
:100FA800031C230FA7022A1401300310A30CA20C60
:100FB800A10CA00CFF3E031DD92F0130A802031D70
:100FC800B02F29080319F32FAA09AB09AC09AD09F9
:100FD800AA0A0319AB0A0319AC0A0319AD0A2D08AA
:100FE800A3002C08A2002B08A1002A08A0000800D2
:080FF80083010A128A11852E03
:04400E00D2E3FFFFFB
:00000001FF
