:060000000A128A11242AF5
:1003CE00F03088000F30831288000800F000031709
:1003DE008D0083168C130C1483120C080800F10088
:1003EE00F008031908008316981CF7297108840079
:1003FE008313000883129900F10AF003F729F10024
:10040E0003178D0070088C0083168C130C150B08C7
:10041E00F2008B0155308D00AA308D008C147208BD
:10042E008B000000831203130D1E182A8316031768
:10043E000C11831203130D120800FD01C601C70132
:10044E00C801C901CA013F30BA000630BB005B309B
:10045E00BC004F30BD006630BE006D30BF007D3039
:10046E00C0000730C1007F30C2006F30C30079304A
:10047E00C4003930C50083010A128A11D62A200819
:10048E00F0002108F100A830F201F301F701F600A7
:10049E00C030F500F4018E220A128A117008A200F3
:1004AE007108A3007208A4007308A500023003109F
:1004BE00A50CA40CA30CA20CFF3E031D5E2A230860
:1004CE00A7002208A600FF30A6070318A70AA70751
:1004DE0083169801831298018316031787018715D7
:1004EE0083120313270883169A0083122608831695
:1004FE0099001812181398111815981683121813BC
:10050E009811181698178316071387170800F80105
:10051E00F901FA01FB0173087204710470040319E6
:10052E00CD2AFC01FC0AF31BA22A0310F00DF10DDB
:10053E00F20DF30D992A0310F80DF90DFA0DFB0DBE
:10054E0073087702031DB52A72087602031DB52AB9
:10055E0071087502031DB52A70087402031CC72AA0
:10056E007008F4027108031C710FF5027208031C67
:10057E00720FF6027308031C730FF7027814031040
:10058E00F30CF20CF10CF00CFC0BA22A7B08F3001E
:10059E007A08F2007908F1007808F00008002E3091
:1005AE0084000930FF008001840AFF0BDA2AB701AC
:1005BE00B801AD01AA01A801A901AC01AB01AB0ABA
:1005CE008316860103178901880188110812831288
:1005DE0003131F1083160710871007118711871238
:1005EE0085110512831203178C01FF300313860049
:1005FE008711071187100710851105128030A00092
:10060E002530A1000A128A1146220A128A110A12F4
:10061E008A11E7210A128A1183120313B901871274
:10062E008C1E2B2B2A082E3E84001A088313800062
:10063E00AA0A2E087E3A031DAA012A08093A031DAA
:10064E002B2BAA01A801A80A28080319E42B3608A7
:10065E007F3A031DE32B3108AD00323A031DAB2B5D
:10066E003208303A031D632B3308303A031D632BD7
:10067E003408303A031D632B3508303A031D632BC3
:10068E002F08F00002300A128A1106220A128A116D
:10069E003008F00003300A128A1106220A128A115B
:1006AE0087160930F0002E300A128A11F6210A122E
:1006BE008A118312A901E32B02300A128A11ED214D
:1006CE000A128A110313B70003300A128A11ED21A0
:1006DE000A128A110313B8002F083706031DE32BE5
:1006EE0038083006031DE32B3408F00000300A12E0
:1006FE008A1106220A128A113508F00001300A12F8
:10070E008A1106220A128A113408B7003508B80079
:10071E007E30AE003708AF003808B0003230B1007E
:10072E003030B200B300B400B5007F30B60087168B
:10073E000930F0002E300A128A11F6210A128A119F
:10074E008312A901A90AE32BA908031DC02B0230AD
:10075E000A128A11ED210A128A110313B70003300F
:10076E000A128A11ED210A128A110313B800A90187
:10077E00A90A2F083706031DE32B38083006031D80
:10078E00E32B2D08303A031DD92B3208D03EFD0045
:10079E003308D03EC6003408D03EC7003508D03EE0
:1007AE00C800E32B2D08313A031DE32B3508D03E4C
:1007BE00C9003408D03ECA00A8012D08313A031DE5
:1007CE00C92C2B080319F32B0A128A1143250A127E
:1007DE008A1183120313B90030303902031C132C13
:1007EE003A3039020318132CAC0A2C0B032CCA0115
:1007FE003908D03EC900122C2C08023A031D0E2CCB
:10080E004908CA003908D03EC900AB01122C2C0889
:10081E00FF3A0319AC01B901AB08031D982C0B303C
:10082E008800081E492C572C0516051E222C8312F3
:10083E0003138515252C831203138511851D2B2C6F
:10084E008312031307142E2C831203130710071C95
:10085E00342C831203138714372C8312031387103F
:10086E00871C3D2C831203130715402C8312031390
:10087E000711071D462C831203138715492C83126B
:10088E0003138711081E1B2C7830F000F1010A1299
:10089E008A11EB270A128A11453083120313B9000D
:1008AE0007308800081E8A2C982C0516051E632C0E
:1008BE00831203138515662C831203138511851D70
:1008CE006C2C8312031307146F2C8312031307105F
:1008DE00071C752C831203138714782C83120313B1
:1008EE008710871C7E2C831203130715812C83120D
:1008FE0003130711071D872C8312031387158A2CE8
:10090E00831203138711081E5C2C7830F000F1015E
:10091E000A128A11EB270A128A114330831203132B
:10092E00B9003908433A031DA22CC901CA01AC0112
:10093E00AB01AB0AC92C3908453A031DC92C7E30D0
:10094E00AC01AD01AB01AB0AAE003708AF00380801
:10095E00B0003130B1003030B200B3004A08303E42
:10096E00B4004908303EB5007F30B6008716093016
:10097E00F0002E300A128A11F6210A128A11831201
:10098E00C901CA010A128A11CF240A128A11132B25
:10099E0048083A3E84008313000886008711071525
:1009AE0087140714851505160F30F000F101EB279B
:1009BE000A128A118312031347083A3E84008313E6
:1009CE00000886008715071187140714851505166C
:1009DE000F30F000F101EB270A128A118312031374
:1009EE0046083A3E840083130008860087150715D3
:1009FE0087100714851505160F30F000F101EB274F
:100A0E000A128A117D083A3E84008313000883126D
:100A1E00031386008715071587140710851505160D
:100A2E000F30F000F101EB270A128A118312031323
:100A3E0049083A3E8400831300088600871507157F
:100A4E0087140714851105160F30F000F101EB27FE
:100A5E000A128A11831203134A083A3E8400831342
:100A6E0000088600871507158714071485150512CB
:100A7E000F30F000F101EB2F0E308800081E762D9E
:100A8E007D2D0516051E4F2D831203138515522D30
:100A9E00831203138511851D582D8312031307141A
:100AAE005B2D831203130710071C612D8312031392
:100ABE008714642D831203138710871C6A2D8312EB
:100ACE00031307156D2D831203130711071D732DC5
:100ADE00831203138715762D831203138711081EB5
:100AEE00482D7830F000F101EB273834881EAE2DFA
:100AFE00B52D0516051E872D8312031385158A2D18
:100B0E00831203138511851D902D83120313071471
:100B1E00932D831203130710071C992D83120313B1
:100B2E0087149C2D831203138710871CA22D83120A
:100B3E0003130715A52D831203130711071DAB2DE4
:100B4E00831203138715AE2D831203138711881E8C
:100B5E00802D7830F000F101EB273434081FE62D9C
:100B6E00ED2D0516051EBF2D831203138515C22DFF
:100B7E00831203138511851DC82D831203130714C9
:100B8E00CB2D831203130710071CD12D83120313D1
:100B9E008714D42D831203138710871CDA2D83122A
:100BAE0003130715DD2D831203130711071DE32D04
:100BBE00831203138715E62D831203138711081F63
:100BCE00B82D7830F000F101EB2730340D3088006D
:100BDE00081E202E272E0516051EF92D831203132F
:100BEE008515FC2D831203138511851D022E83128C
:100BFE0003130714052E831203130710071C0B2E65
:100C0E008312031387140E2E831203138710871C6F
:100C1E00142E831203130715172E831203130711B5
:100C2E00071D1D2E831203138715202E8312031307
:100C3E008711081EF22D7830F000F101EB273934C0
:100C4E00881E582E5F2E0516051E312E8312031395
:100C5E008515342E831203138511851D3A2E8312AA
:100C6E00031307143D2E831203130710071C432E84
:100C7E00831203138714462E831203138710871CC7
:100C8E004C2E8312031307154F2E831203130711D5
:100C9E00071D552E831203138715582E8312031327
:100CAE008711881E2A2E7830F000F101EB2735349B
:100CBE00081F902E972E0516051E692E83120313FC
:100CCE0085156C2E831203138511851D722E8312CA
:100CDE0003130714752E831203130710071C7B2EA4
:100CEE008312031387147E2E831203138710871C1F
:100CFE00842E831203130715872E831203130711F5
:100D0E00071D8D2E831203138715902E8312031346
:100D1E008711081F622E7830F000F101EB27313475
:100D2E000B308800081ECA2ED12E0516051EA32EC6
:100D3E00831203138515A62E831203138511851DA9
:100D4E00AC2E831203130714AF2E83120313071056
:100D5E00071CB52E831203138714B82E83120313A8
:100D6E008710871CBE2E831203130715C12E831204
:100D7E0003130711071DC72E831203138715CA2EDF
:100D8E00831203138711081E9C2E7830F000F10198
:100D9E00EB274534881E022F092F0516051EDB2E64
:100DAE00831203138515DE2E831203138511851D01
:100DBE00E42E831203130714E72E83120313071076
:100DCE00071CED2E831203138714F02E83120313C8
:100DDE008710871CF62E831203130715F92E831224
:100DEE0003130711071DFF2E831203138715022FFE
:100DFE00831203138711881ED42E7830F000F10170
:100E0E00EB273634081F3A2F412F0516051E132FD8
:100E1E00831203138515162F831203138511851D57
:100E2E001C2F8312031307141F2F83120313071093
:100E3E00071C252F831203138714282F83120313E5
:100E4E008710871C2E2F831203130715312F831241
:100E5E0003130711071D372F8312031387153A2F1C
:100E6E00831203138711081F0C2F7830F000F10145
:100E7E00EB27323407308800081E742F7B2F05169F
:100E8E00051E4D2F831203138515502F8312031346
:100E9E008511851D562F831203130714592F8312A4
:100EAE0003130710071C5F2F831203138714622F7F
:100EBE00831203138710871C682F831203130715E1
:100ECE006B2F831203130711071D712F8312031348
:100EDE008715742F831203138711081E462F78303F
:100EEE00F000F101EB274334881EAC2FB32F05160B
:100EFE00051E852F831203138515882F8312031366
:100F0E008511851D8E2F831203130714912F8312C3
:100F1E0003130710071C972F8312031387149A2F9E
:100F2E00831203138710871CA02F83120313071538
:100F3E00A32F831203130711071DA92F8312031367
:100F4E008715AC2F831203138711881E7E2F7830DE
:100F5E00F000F101EB273734081B0034E42F05169F
:100F6E00051EBD2F831203138515C02F8312031385
:100F7E008511851DC62F831203130714C92F8312E3
:100F8E0003130710071CCF2F831203138714D22FBE
:100F9E00831203138710871CD82F83120313071590
:100FAE00DB2F831203130711071DE12F8312031387
:100FBE008715E42F831203138711081FB62F78307D
:100FCE00F000F101EB273334F301F4017408803A99
:100FDE00F2007108803A7202031DF72F7008730237
:100FEE0003180800000000000000F30A0319F40AB9
:020FFE00ED2FD5
:04400E00D2E0FFFEFF
:00000001FF
