:060000000A128A11DB2D3B
:100B4800F00003178D0083168C130C1483120C0805
:100B58000800F100F008031908008316981CAE2D50
:100B6800710884008313000883129900F10AF003C6
:100B7800AE2DF10003178D0070088C0083168C13BE
:100B88000C150B08F2008B0155308D00AA308D0032
:100B98008C1472088B000000831203130D1ECF2DD6
:100BA800831603170C11831203130D120800FD019D
:100BB800C301C401C501FC30B7006030B800DA30A9
:100BC800B900F230BA006630BB00B630BC00BE30A7
:100BD800BD00E030BE00FE30BF00F630C00030304F
:100BE800C1003030C20083010A128A11FC2EF801BC
:100BF800F9017908803AF7007608803A7702031DF0
:100C0800072E7508780203180800E830F000033052
:100C1800F10058260A128A11F80A0319F90AFD2D5B
:100C28007D08373E84008313000886008711071566
:100C3800871407141930F000F10158260A128A1196
:100C4800831203134308373E840083130008860089
:100C580087150711871407141930F000F101582679
:100C68000A128A11831203134408373E840083133F
:100C78000008860087150715871007141930F0003B
:100C8800F10158260A128A11831203134508373EC8
:100C9800840083130008860087150715871407103A
:100CA8001930F000F101582EF301F4017408803A6C
:100CB800F2007108803A7202031D642E70087302F4
:100CC8000318080000000000F30A0319F40A5A2E5A
:100CD8002008F0002108F100A830F201F301F70123
:100CE800F600C030F500F401B4260A128A11700823
:100CF800A2007108A3007208A4007308A5000230BE
:100D08000310A50CA40CA30CA20CFF3E031D842EFB
:100D18002308A7002208A600FF30A6070318A70A81
:100D2800A707831698018312980183160317870172
:100D3800871583120313270883169A00831226083F
:100D480083169900181218139811181598168312FB
:100D58001813981118169817831607138717080081
:100D6800F801F901FA01FB017308720471047004B7
:100D78000319F32EFC01FC0AF31BC82E0310F00D17
:100D8800F10DF20DF30DBF2E0310F80DF90DFA0D4C
:100D9800FB0D73087702031DDB2E72087602031D14
:100DA800DB2E71087502031DDB2E70087402031C0C
:100DB800ED2E7008F4027108031C710FF502720819
:100DC800031C720FF6027308031C730FF7027814E2
:100DD8000310F30CF20CF10CF00CFC0BC82E7B0882
:100DE800F3007A08F2007908F1007808F0000800AA
:100DF8002C3084000930FF008001840AFF0B002F8B
:100E08004208B6004108B500AA01A801A901831645
:100E1800860103178901880103130710871007113A
:100E2800871187128C16831203178C01031386010E
:100E380087150715871407148030A0002530A100F6
:100E48000A128A116C260A128A111430F500F6016A
:100E58000A128A11FB250A128A11831203138712B8
:100E68008C1E482F2A082C3E84001A088313800001
:100E7800AA0A2C087E3A031DAA012A08093A031D6A
:100E8800482FAA01A801A80A28080319FA2F2C0834
:100E98007E3A031DF92F34087F3A031DF92F2F08D6
:100EA800AB00303A031D822FA908031D6D2F0030B7
:100EB8000A128A11A4250A128A110313B5000130F7
:100EC8000A128A11A4250A128A110313B600A9016D
:100ED800A90A2D083506031DF92F36082E06031D0D
:100EE800F92F3008D03EFD003108D03EC30032084B
:100EF800D03EC4003308D03EC500F92F2B08323A43
:100F0800031DF92F3008303A031DB22F3108303A4B
:100F1800031DB22F3208303A031DB22F3308303A7E
:100F2800031DB22F2D08F00000300A128A11BD25CA
:100F38000A128A112E08F00001300A128A11BD2502
:100F48000A128A1187160930F0002C300A128A1109
:100F5800AD250A128A118312A901F92F00300A124D
:100F68008A11A4250A128A110313B50001300A1246
:100F78008A11A4250A128A110313B6002D08350612
:100F8800031DF92F36082E06031DF92F3208F0002D
:100F980000300A128A11BD250A128A113308F0009E
:100FA80001300A128A11BD250A128A113208B500C9
:100FB8003308B6007E30AC003508AD003608AE0008
:100FC8002B08AF003030B000B100B200B3007F3062
:100FD800B40087160930F0002C300A128A11AD25AA
:100FE8000A128A118312A901A90AA8010A128A11F0
:080FF80014260A128A11312FA0
:08400000FF3FFF3FFF3FFF3FC0
:04400E0032E3FFFE9C
:00000001FF
