:060000000A128A11C62E4F
:100D8C0083010A128A11742F83129001101290128F
:100D9C0090100800F0007008840080080319080007
:100DAC00700884000008831299008316981CDB2EAF
:100DBC00F00AD12E71087004031908001010F430D9
:100DCC008F0047308E000C1010140C1CEB2EFF30D3
:100DDC00F007031CF103E02E2008F0002108F100BD
:100DEC00A830F201F301F701F600C030F500F40170
:100DFC002C270A128A117008A2007108A30072082D
:100E0C00A4007308A50004300310A50CA40CA30CBB
:100E1C00A20CFF3E031D0A2F2208FF3EFD00831685
:100E2C0098018312980183169901831299019A01F2
:100E3C0083168C120C127D089900181598168312C3
:100E4C00181698178316071387170800F801F9016D
:100E5C00FA01FB01730872047104700403196B2FFF
:100E6C00FC01FC0AF31B402F0310F00DF10DF20DE9
:100E7C00F30D372F0310F80DF90DFA0DFB0D730858
:100E8C007702031D532F72087602031D532F71082E
:100E9C007502031D532F70087402031C652F700814
:100EAC00F4027108031C710FF5027208031C720F17
:100EBC00F6027308031C730FF70278140310F30C7B
:100ECC00F20CF10CF00CFC0B402F7B08F3007A08B1
:100EDC00F2007908F1007808F0000800293084004D
:100EEC000A30FF008001840AFF0B782F8030A801A4
:100EFC00A601A0002530A1000A128A11F2260A12BE
:100F0C008A11860107309F0085140515071087107C
:100F1C0007118711071287128C160B108B110A12EE
:100F2C008A11CA260A128A11860107108710071126
:100F3C00871107128712C830F000F1010A128A11CA
:100F4C00E0260A128A118C1EBC2F2808293E840028
:100F5C001A088000A80A29087E3A031DA80128084F
:100F6C00093A031DBC2FA801A601A60A26080319DD
:100F7C00A92F31087F3A031DFE2F2A08393A031D89
:100F8C00FE2F2B08A700303A0319F32F2708323A0B
:100F9C00031DF32F0A30F000F1010A128A11E0262A
:100FAC000A128A117E30A9003930AA003130AB0008
:100FBC003030AC00AD00AE00050801393038AF0060
:100FCC00050C01393038B0007F30B1002930B20146
:100FDC000A128A11D0260A128A118312A901AA01B7
:100FEC00AB01AC01AD01AE01AF01B001B101B20179
:040FFC00A601A92F72
:02400E003AFD79
:00000001FF
